:020000040800F2
:10000000A007002029020008D31F0008831E000853
:10001000D11F00081F040008A921000800000000EB
:10002000000000000000000000000000FD200008AB
:10003000E112000800000000D51F0008FF200008A2
:10004000430200084302000843020008430200087C
:10005000430200084302000843020008430200086C
:10006000430200084302000843020008430200085C
:10007000430200084302000843020008430200084C
:10008000430200084302000843020008430200083C
:10009000430200084302000843020008430200082C
:1000A000430200084302000843020008430200081C
:1000B000430200084302000843020008430200080C
:1000C00043020008430200084302000843020008FC
:1000D00043020008430200084302000843020008EC
:1000E000E31200084302000843020008430200082C
:1000F00043020008430200084302000843020008CC
:1001000043020008430200084302000843020008BB
:1001100043020008430200084302000843020008AB
:10012000430200084302000843020008430200089B
:100130004302000800000000000000004302000825
:10014000430200084302000843020008430200087B
:10015000430200084302000843020008430200086B
:10016000430200084302000843020008430200085B
:1001700043020008430200080000000000000000E5
:10018000430200084302000800F002F800F03CF8C7
:100190000AA090E8000C82448344AAF10107DA45E2
:1001A00001D100F031F8AFF2090EBAE80F0013F0F8
:1001B000010F18BFFB1A43F0010318474821000044
:1001C00068210000103A24BF78C878C1FAD85207D5
:1001D00024BF30C830C144BF04680C6070470000C1
:1001E0000023002400250026103A28BF78C1FBD840
:1001F000520728BF30C148BF0B6070471FB502F0DF
:1002000073F81FBD10B510BD00F0CFF81146FFF711
:10021000F5FF02F047F800F0EDF803B4FFF7F2FF46
:1002200003BC00F0F5F80000094880470948004782
:10023000FEE7FEE7FEE7FEE7FEE7FEE7FEE7FEE796
:10024000FEE7FEE704480549054A064B70470000F3
:100250009921000889010008A0010020A0070020C2
:10026000A0030020A003002053EA020C00F06980E4
:100270002DE9F04B4FF00006002B1FBFB3FA83F5BA
:1002800003FA05F424FA05F65E4012BF1643B2FAEB
:1002900082F502FA05F4C5F120051EBF22FA05FC1D
:1002A00044EA0C04203556EA044C4FEA144418BFC3
:1002B000641C4FF000084FF00009904271EB030CF2
:1002C00039D3002919BFB1FA81F701FA07F6B0FA5C
:1002D00080F700FA07F6C7F120071EBF20FA07FCD7
:1002E00046EA0C062037B6FBF4FCA7EB0507103FE7
:1002F00007F01F0BCBF120060CFA0BFB2CFA06F6CD
:1003000044BFB3460026202FA4BF5E464FF0000B2B
:100310005BEA060C08BF4FF0010B19EB0B09ABFBB6
:10032000027C48EB0608C01B06FB02CC0BFB03CC8F
:1003300071EB0C01C1E70B46024641464846BDE859
:10034000F08B13B54FF000004FF00001AFF30080C9
:10035000BDE81C4070474FF0000200B513469446BC
:100360009646203922BFA0E80C50A0E80C50B1F10D
:100370002001BFF4F7AF090728BFA0E80C5048BF21
:100380000CC05DF804EB890028BF40F8042B08BFBF
:10039000704748BF20F8022B11F0804F18BF00F8BB
:1003A000012B7047704770477047754600F02CF876
:1003B000AE4605006946534620F00700854618B052
:1003C00020B5FFF73FFFBDE820404FF000064FF09B
:1003D00000074FF000084FF0000B21F00701AC467A
:1003E000ACE8C009ACE8C009ACE8C009ACE8C00999
:1003F0008D46704710B50446AFF300802046BDE837
:100400001040FFF70ABF0000004870473C01002081
:1004100001491820ABBEFEE7260002007047FEE748
:1004200070B514460D46064633B1012B0FD0022B92
:1004300018D04FF0FF3070BD00F0CEFA0028FAD18E
:10044000224629463046BDE8704000F035B900F03C
:1004500073FA0028EFD1224629463046BDE87040A5
:1004600000F080B800F018FA0028E4D122462946AE
:100470003046BDE8704000F001B800002DE9F041C1
:1004800005460022334B344C344E501E122954D2B0
:10049000DFE801F0091953535353535327390953D4
:1004A00019535353532762F31F6323F4F81000F5D5
:1004B000C02020F4706000F5807020F00F0062F31F
:1004C0000504401C31E062F31F6323F4F81000F5CB
:1004D000003020F47060344620F00F0062F3050411
:1004E00023E062F31F6323F4F81000F5602020F48A
:1004F00070601B4900F5407020F00F0062F30501A9
:100500008CB2C01C11E062F31F6323F4F81000F5F5
:10051000E02020F4706000F500704FF4023120F00C
:100520000F0062F305018CB2801C024608212846A8
:1005300000F086FE18B16FF00100BDE8F0812246A0
:100540000C21284600F07CFE0028F6D06FF0020057
:10055000F3E7000003030E0000070200000302009F
:10056000000F02002DE9F041054600224A4B4B4C9A
:100570004B4E4C4F501E122975D2DFE801F009197D
:1005800074762A747474384A095C197476767438EF
:1005900062F31F6323F4F81000F5602020F470600C
:1005A00000F5407020F00F0062F30504C01C52E01B
:1005B00062F31F6323F4F81000F5C02020F470608C
:1005C00000F5807020F00F00344662F30504401CF3
:1005D00041E062F31F6323F4F81000F5803020F44B
:1005E0007060314C20F00F0062F3050433E062F3D9
:1005F0001F6323F4F81000F5F01020F470602B490D
:1006000000F5E06020F00F0062F305018CB2C01D20
:1006100021E062F31F6323F4F81000F5881020F442
:100620007060234900F5806020F00F0062F305013F
:100630008CB2001D0FE062F31F6323F4F81000F585
:10064000002020F4706000F500701A4C20F00F00BC
:1006500062F30504801C02460821284600F0F0FDE4
:1006600078B16FF00100BDE8F08162F31F6323F4FD
:10067000F81000F5003020F4706020F00F003C46C8
:10068000B2E722460C21284600F0DAFD0028EAD025
:100690006FF00200E7E7000003030E00000F020006
:1006A000000702000003020000020200001F020017
:1006B00000120200000902002DE9F04781460022E5
:1006C0006B486C4C6C4B6D4D6D4E17464FF0010CEA
:1006D000122975D2DFE801F087091AB02B3C4B577D
:1006E00063758796091AB0B04B6362F31F6020F4FC
:1006F000F81000F5602020F4706000F5407020F0E4
:100700000F0062F305031C46C01C8BE062F31F6000
:1007100020F4F81000F5002020F4706000F500705F
:1007200020F00F002C4662F30504801C7AE062F38F
:100730001F6020F4F81000F5802020F4706000F5B0
:100740008070504C20F00F0062F30504401C69E0FB
:1007500062F31F6020F4F81000F5403020F4706060
:100760004FF4013420F00F0062F305045AE062F305
:100770001F6020F4F81000F5003020F4706020F0C5
:100780000F00414C4EE062F31F6020F4F81000F5BA
:10079000803020F4706020F00F003C4C42E06CF39D
:1007A0001F6020F4F81000F5F01020F4706000F5E0
:1007B000E06067F3050420F00F00A4B2C01D31E033
:1007C00048E06CF31F6020F4F81000F5881020F466
:1007D00070602F4900F5806020F00F0067F305017D
:1007E0008CB2001D1EE062F31F6020F4F81000F5CB
:1007F000F01020F4706000F5E06020F00F0062F36C
:100800000504DBE762F31F6020F4F81000F5901098
:1008100020F4706000F5A0601E4C20F00F0062F321
:100820000504401D02460821484600F009FDA0B11C
:100830006FF00100BDE8F08762F31F6020F4F8104C
:1008400000F5C02020F4706000F5807020F00F00EB
:10085000344679E74FF0FF30ECE722460C2148465A
:1008600000F0EEFC0028E5D06FF00200E2E70000A7
:1008700003030E00001F0200000F02000009020027
:10088000000702000005020001030200000202004E
:10089000001202000013020010B5264A002312299C
:1008A00045D2DFE801F009094409090909091616CA
:1008B000161616161623233063F31F620E2161F3FA
:1008C000174222F4FE4101F5407121F07F02D21C53
:1008D00025E063F31F621E2161F3174222F4FE41FB
:1008E00001F5E06121F07F02D21D18E063F31F6281
:1008F000072161F3174222F4FE4101F5007121F056
:100900007F02921C0BE063F31F623E2161F31742EA
:1009100022F4FE4101F5706121F07F020F320421C3
:1009200000F08EFC002801D06FF0010010BD4FF0E8
:10093000FF3010BD0F0F3E0010B5264A00231229CC
:1009400045D2DFE801F00909440909090909161629
:10095000161616161623233063F31F621E2161F349
:10096000174222F4FE4101F5E06121F07F02D21D21
:1009700025E063F31F623E2161F3174222F4FE413A
:1009800001F5706121F07F020F3218E063F31F62FE
:100990000E2161F3174222F4FE4101F5407121F06E
:1009A0007F02D21C0BE063F31F627E2161F31742CA
:1009B00022F4FE4101F5F85121F07F021F3204219B
:1009C00000F03EFC002801D06FF0010010BD4FF098
:1009D000FF3010BD0F0F3E0030B4254A002312290E
:1009E00041D2DFE801F009090909090909091616C8
:1009F000161616161623233063F31F623E2161F389
:100A0000174222F4FE4101F5706121F07F020F329E
:100A100025E063F31F627E2161F3174222F4FE4159
:100A200001F5F85121F07F021F3218E063F31F62D5
:100A30001E2161F3174222F4FE4101F5E06121F02D
:100A40007F02D21D0BE063F31F62FE2161F31742A8
:100A500022F4FE4101F57C5121F07F023F3230BC8F
:100A6000042100F0EDBB30BC4FF0FF3070470000B8
:100A70000F0F3E0010B50968154A4B0961F30402D7
:100A800063F345128B0963F38612CB0963F30822E3
:100A90000B0A63F34A228B0A63F30C32CB0A63F32B
:100AA00010420B0B63F351424B0B63F392428B0BDF
:100AB00063F3D342CB0B63F31452090C61F31F723F
:100AC000002100F0BDFB002801D04FF0FF3010BD29
:100AD0006007980410B50168002363F30401012244
:100AE00062F3451162F3861162F3C711032464F3C4
:100AF000092163F38A2163F3CB2163F30C3163F3A0
:100B00004D3162F38E3162F3CF3163F313410160F3
:100B1000002010BD01460020092901D20846704777
:100B200009390729FBD2DFE801F00406080A0C0E98
:100B300010000C20704710207047142070471820B8
:100B4000704720207047302070474020704738B5EC
:100B5000054600208DF8000040F60C646A462146E8
:100B6000284600F0ADF810B14FF0FF3038BD9DF8C9
:100B70000000214640F001028DF80020284600F0D8
:100B800011FB0028F2D06FF0010038BD4FF4FA736A
:100B9000126803EBC10100F053BB4FF4F873126805
:100BA00003EBC10100F04CBB13B144F0800301E042
:100BB00024F0800362F30403DAB201F5E87100F077
:100BC000F1BAF8B507460E460020154640F6076113
:100BD00000900C4638460DF1030200F071F810B198
:100BE0004FF0FF30F8BD0098214666F3186065F3BA
:100BF000596000909DF80320384600F0D3FA002891
:100C0000F0D06FF00100F8BDF8B5064600200D46A3
:100C10001E24ADF800006A462146304600F094F8E4
:100C200010B14FF0FF30F8BDBDF8002025F0E00016
:100C30000243ADF800202146304600F0E7FA0028D4
:100C4000F1D06FF00100F8BD38B5054600200C4624
:100C50008DF800006A460321284600F031F810B1F3
:100C60004FF0FF3038BD9DF80000032120F007024F
:100C700022438DF80020284600F094FA0028F1D095
:100C80006FF0010038BD70B58EB006460022684690
:100C90008154521C352AFBD34FF480640025352340
:100CA0006A462146304600F08FFA18B14FF0FF3007
:100CB0000EB070BD35346D1CA4B2262DEFD3F7E70E
:100CC00070B51546094CC1F30322303222706170B1
:100CD0000021A170032304F16A02214600F0E0FA2A
:100CE00004F16A018978297070BD00006800002055
:100CF00070B515461C469A1C93B26A2B02D94FF068
:100D0000FF3070BD0F4AC1F30326303616705170A4
:100D10000221002602E05654491C89B29942FAD3B6
:100D2000084A08496A3200F0BBFA064A00216A32D2
:100D300004E053189B786B54491C89B2A142F8D344
:100D400070BD00006800002070B514460E4AC1F363
:100D5000032530351570517004236A320A4900F0BA
:100D60009FFA00280FD100212180074B02216A330E
:100D7000CD005A5C103DAA402588491C2A44C9B2BE
:100D800022800429F4D370BD680000202DE9F843C7
:100D900090461D46022202EB850293B26A2B03D9CC
:100DA0004FF0FF30BDE8F883184AC1F30324303414
:100DB000147051700221002402E05454491C89B27D
:100DC0009942FAD3114A11496A3200F069FA0028AF
:100DD000E8D10E4E022300216F466A3612E000224F
:100DE000CDF8004016F803C007F802C0521C5B1C87
:100DF00092B29BB2042AF5D3DDF800C048F821C0B6
:100E0000491C89B2A942EAD3CCE70000680000205F
:100E100030B491B114880B4B620862F31C63A209D1
:100E200062F35F731A4664F3451201EB41015023EC
:100E300030BC03EB810100F003BA30BC6FF06300FB
:100E400070470000000460000268002161F3450261
:100E500061F3881261F30002026008467047F8B53A
:100E60001446054679B101EB4100502101EB8006A3
:100E7000002000906A4631462846FFF721FF28B13E
:100E80004FF0FF30F8BD6FF06300F8BD9DF8002013
:100E900004F00F0002438DF800203146284600F090
:100EA00081F90028F1D06FF00100F8BD38B5144683
:100EB00069B10022009201EB4101542202EB810151
:100EC0006A46FFF7FDFE28B14FF0FF3038BD6FF0E6
:100ED000630038BD9DF8001001F00F01217038BD8E
:100EE00001EB4101512202EB81014FF48072120AA1
:100EF00000F058B92DE9F04F8A46834601EB4A00CD
:100F000097B050219946164601EB80010024032337
:100F100013AA5846DDF88080FFF738FF18B1601E2D
:100F200017B0BDE8F08F139F380602D56FF00100AF
:100F3000F6E71598C0F30B0108F10800C3B201F5FC
:100F40008061B80601D51B1DDBB2980704D003F001
:100F50000300181A001DC3B24C2B00D94C236A465B
:100F60005846FFF7C5FE10B16FF00200D8E79DF8B4
:100F70000000B90660F307059DF8010060F30F2536
:100F80009DF8020060F317459DF8030060F31F65AC
:100F900035609DF8040060F307059DF8050060F3D7
:100FA0000F259DF8060060F317459DF8070060F3D4
:100FB0001F65756068461AD59DF8081061F307052E
:100FC0009DF8091061F30F259DF80A1061F317458C
:100FD0009DF80B1061F31F65B56005E001190A7BF0
:100FE00009F80420641CE4B24445F7D30AE0002168
:100FF000B16005E001190A7A09F80420641CE4B222
:101000004445F7D351465846FFF76AFF002887D07A
:101010006FF0030084E70000044A002102231170EE
:1010200051706A32014900F03BB9000068000020AD
:1010300030B414880B4B220A62F31C631A46630B0C
:1010400063F35F72A30963F35652630863F31442B8
:1010500064F3861201EB4101502330BC03EB8101A4
:1010600000F0EEB88004600000210268032361F301
:10107000000261F3450263F3871261F30C2261F30E
:101080004F320260084670472DE9F04397B00F4693
:10109000814601EB4700DDE91E5850211E461446EB
:1010A00001EB8001032313AA4846FFF76FFE20B12E
:1010B0004FF0FF3017B0BDE8F0831398000602D45C
:1010C0006FF00100F6E7207900F00F00FFF722FD36
:1010D000A84202D26FF00200ECE715986A46C0F30E
:1010E0000B0120788DF8000060788DF80100A07861
:1010F0008DF80200E0788DF8030020798DF8040067
:1011000060798DF80500A0798DF80600E0798DF8FA
:101110000700002001F5806104E0335C1418401CD6
:101120002372C0B2A842F8D300231846AC0712D0ED
:1011300005F0030305F10804C3F10403E4B200263B
:1011400007E000BF04EB000C9444401C8CF80860DE
:10115000C0B29842F6D3E818083083B2484600F08F
:1011600033F810B16FF00300A4E742463946484611
:1011700000F005F800289DD06FF004009AE701EB1D
:101180004101512310B503EB81014FF480730AB183
:101190004FF440731A0A00F005F8002801D04FF010
:1011A000FF3010BD30B4074C0323C1F303252035B5
:1011B00025706170A27004F16A02214630BC00F013
:1011C0006FB8000068000020F0B49C1CA4B26A2C28
:1011D00003D9F0BC4FF0FF3070470B4DC1F303262D
:1011E00020362E706970002104E0565C6F18491C8F
:1011F000BE7089B29942F8D32346F0BC024A024934
:101200006A3200F04DB8000068000020F0B40B4CCA
:10121000C1F3032520352570042361700021CD0022
:1012200022FA05F56618491CC9B2B5700229F6D331
:10123000F0BC024A01496A3200F032B8680000206E
:10124000F0B40B4CC1F303252035257006236170E3
:101250000021CD0022FA05F56618491CC9B2B57007
:101260000429F6D3F0BC024A01496A3200F018B8EA
:101270006800002010B5094B002458B1012807D19F
:1012800008E0002200E001221021184600F034F9A5
:10129000204610BD0029F6D0F3E700000000024010
:1012A000F8B50F461D46164604460121FFF7E2FF3A
:1012B000002811D14FF47A700CB1012C06D10090A6
:1012C0002B4632463946054800F0D0FC2046BDE8A2
:1012D000F8400021FFF7CEBFF8BD0000100000204D
:1012E00070474FF4004000F003B872B6FEE7704755
:1012F000044910B50A68024202D00860FFF7F7FF00
:1013000010BD0000143C01402DE9F84FDFF8BCA1EE
:101310000022012503264FF00F090AF1040BAAF160
:10132000040E00BF0B6805FA02F42340A34270D1FB
:101330000F7907F00307012F01D0022F16D187681C
:101340004FEA420806FA08FC27EA0C07D1F80CC05D
:101350000CFA08FC4CEA070CC0F808C04768A74321
:101360000C79C4F3001494403C4344600C79E4438A
:10137000A4070AD0C4684FEA420C06FA0CF7BC4333
:101380008F6807FA0CF72743C7600C7904F0030451
:10139000022C12D1D40800EB840CDCF82040570753
:1013A000FF0E09FA07F824EA0804D1F8108008FAB9
:1013B00007F848EA0408CCF8208004684FEA420C99
:1013C00006FA0CF7BC430F7907F0030707FA0CF78E
:1013D000274307604C6814F4403F70D03C4C2768AA
:1013E00047F480472760246822F0030704F4804410
:1013F0000094384C07EB040CDCF8084897074FEAD8
:10140000177809FA08F7BC43334FB84202D10027D6
:1014100024E054E0314FB84201D101271EE0304FA3
:10142000B84201D1022719E02E4FB84201D103275B
:1014300014E02D4FB84201D104270FE02B4FB842E2
:1014400001D105270AE02A4FB84201D1062705E05D
:10145000284FB84201D1072700E0082707FA08F70C
:101460002743CCF80878DAF800405746D1F804C092
:101470009C435FEACC2C00D51C433C60DBF8004069
:101480005F46D1F804C09C435FEA8C2C00D51C4316
:101490003C60DEF800407746D1F804C09C435FEA28
:1014A0008C3C00D51C433C60084F083F3C68D1F899
:1014B00004C09C435FEACC3C00D51C433C60521CFA
:1014C000102AFFF42FAFBDE8F88F0000083C014060
:1014D0004438024000300140000002400004024055
:1014E00000080240000C02400010024000140240BC
:1014F00000180240001C02400AB1816170470904D3
:10150000FBE70000014880687047000000000020F1
:101510000248816802781144816070470000002011
:101520000B4810B5016841F400710160016841F495
:1015300080610160016841F480710160032000F066
:101540006FF80F2000F006F800F024F8002010BD1E
:10155000003C024070B50D4D04464FF47A71287876
:10156000B1FBF0F00A490968B1FBF0F000F075FC3E
:1015700048B9102C07D200222146501E00F030F846
:1015800000206C6070BD012070BD000000000020D4
:101590000C0000200A4808B5016841F48041016050
:1015A000006800F4804000900548001F016841F089
:1015B00080510160006800F08050009008BD00007C
:1015C00044380240002809DB00F01F02012191404D
:1015D0004009800000F1E020C0F8001170470000D1
:1015E000F0B40E4B1B680C46C3F30223C3F107058E
:1015F000042D00D90425191D072901D2002300E07C
:10160000DB1E012606FA05F1491E214099409E4045
:10161000761E16403143F0BC00F0C7BD0CED00E073
:10162000064900F0070208684FF6FF03184040EA39
:101630000220034A10430860704700000CED00E0F0
:101640000000FA052DE9F0470E46050065D0DFF8E9
:101650001481D8F80000F7B200F00700B04207D2BA
:1016600088F80070D8F8000000F00700B04254D1AC
:1016700028683D4C810712D5400703D5206840F407
:10168000E05020602878000703D5206840F46040CF
:1016900020602068A96820F0F000084320602878C6
:1016A000C0072DD0304968680839012812D00228B7
:1016B00013D0032811D00968890700292DDA216881
:1016C00021F0030101432160FFF71CFF814641F235
:1016D000883A0EE009688903EFE709688901ECE7B9
:1016E000FFF710FFA0EB0901514502D90320BDE827
:1016F000F0872068696800F00C00B0EB810FEFD133
:10170000D8F80010404601F00701B14207D9077030
:10171000006800F00700B04201D00120E7E7287818
:10172000400705D52068E96820F4E05008432060B0
:101730002878000706D52068296920F4604040EA2F
:10174000C100206000F018F82168084AC1F30311B5
:10175000515CC8400649086006480068FFF7FAFE79
:101760000020C4E7003C024008380240F222000892
:101770000C00002004000020154810B5006810F08F
:101780000C02144813D01449042A0FD0082A0ED191
:101790000F4C241F2268236802F03F025B0207D52A
:1017A0002068C0F38810A0FB010106E0084610BDC8
:1017B0002168C1F38811A1FB00010023FEF754FD4D
:1017C0002168C1F30141491C4900B0FBF1F010BD93
:1017D000083802400024F40040787D012DE9F84FDC
:1017E00004006ED02078DFF84C93C007A9F10405FF
:1017F0004AD009F104000168C1F38101012908D030
:101800000068C0F3810002280AD1D9F80000400224
:1018100006D52868800337D560680028E1D033E01A
:101820006068B0F5803F10D0B0F5A02F286810D0C8
:1018300020F480302860286820F4802028606068C8
:10184000A8B1FFF75FFE06460DE0286840F480303F
:10185000F4E740F480202860F7E700BFFFF752FE6E
:10186000801B642873D828688003F7D50CE0FFF745
:1018700049FE064605E000BFFFF744FE801B6428D2
:10188000F0D828688003F7D42078DFF8AC8280078E
:101890004FF0000A3ED5A748001D016811F00C0F5B
:1018A00008D00068C0F3810002280BD1D9F80000ED
:1018B000400207D42868800716D5E068012800D1C7
:1018C00012E033E1E068B8B10120C8F80000FFF78A
:1018D00019FE064605E000BFFFF714FE801B022834
:1018E000C0D828688007F7D52868216920F0F8005B
:1018F00040EAC10028600DE0C8F800A0FFF702FE32
:10190000064604E0FFF7FEFD801B02281FD828686A
:101910008007F7D42078000722D5864F8748616971
:10192000703771B101210160FFF7ECFD064604E05C
:10193000FFF7E8FD801B022809D838688007F7D533
:101940000EE0C0F800A0FFF7DDFD064605E082E0EE
:10195000FFF7D8FD801B02287DD838688007F7D4B0
:101960002078400768D5DFF8CCB100270BF13C0B9D
:10197000DBF80000C0000BD4DBF8001041F0805110
:10198000CBF80010DBF80000012700F08050009039
:101990006B4E3068C00510D4306840F48070306001
:1019A000FFF7B0FD009005E0FFF7ACFD0099401A8D
:1019B000022850D83068C005F6D55E4EA0686C3657
:1019C00001280FD00528306810D020F001003060C9
:1019D000306820F004003060A068B8B1FFF792FDD5
:1019E00000900FE0306840F00100F4E740F00400A0
:1019F0003060F7E7FFF786FD0099411A41F2883021
:101A0000814266D830688007F4D50EE0FFF77AFD92
:101A1000009007E0FFF776FD0099411A41F2883007
:101A2000814256D830688007F4D42FB1DBF800101B
:101A300021F08051CBF80010A069C8B33D49091DC1
:101A40000968C1F3810102294AD00228504607D013
:101A5000C8F8600000E03CE0FFF754FD04463BE0BE
:101A60004746C8F86000FFF74DFD064605E000BF99
:101A7000FFF748FD801B02282BD828688001F7D487
:101A8000D4E907010843A16A2E4A490802EB014143
:101A9000626A41EA8211084394F82C1040EA01611D
:101AA000C9F8001001203866FFF72CFD044606E057
:101AB0003EE000BFFFF726FD001B022809D828687A
:101AC0008001F7D534E000BFFFF71CFD001B0228A2
:101AD00002D90320BDE8F88F28688001F4D427E0FC
:101AE0000128F7D0D9F80000E26900F480019142A2
:101AF0001CD1226A00F03F01914217D147F6C07114
:101B0000626A0140B1EB821F10D1A26A4FF0FF332D
:101B100000F4403103EB5202B1EB024F06D194F8CE
:101B20002C1000F07060B0EB016F01D00120D1E704
:101B30000020CFE70438024000004742800E4742B1
:101B4000007000400000FFFF70B5040009D0606A1B
:101B5000002540B125616561A56294F8510040B14E
:101B60000CE0012070BD6068B0F5827FF4D0E561C3
:101B7000F2E784F85050204600F044F8022084F840
:101B800051002068016821F040010160A08821898E
:101B900000F4827001F404410843A18901F400615A
:101BA0000843217C01F002010843217D01F001017D
:101BB0000843218B01F400710843217F01F03801B3
:101BC000084394F8201001F080010843218D01F4AE
:101BD0000051084321680860A069042101EA10400F
:101BE00094F8241001F0100108432168486020682F
:101BF000C16921F40061C1616565012084F851006B
:101C0000002070BD10B586B0044614216846FEF76A
:101C1000A2FB13492068884220D1124800210268A3
:101C200042F480520260006800F4805005900D4834
:101C30001438026842F001020260006800F00100FE
:101C40000590E02000900220CDE9010103200390DF
:101C50000520049069460448FFF756FB06B010BD06
:101C60000030014044380240000002402DE9FF4F9F
:101C700081B0044690F8500000260E9F1D46934602
:101C80004FF0010901280FD04FF0010A84F850A04D
:101C9000FFF738FC804694F85100616801280DD0A8
:101CA000B1F5827F08D103E0022005B0BDE8F08FD6
:101CB000A16809B9042801D00226C9E002980028C9
:101CC00065D0BBF1000FFBD0002DF9D094F8510086
:101CD000042802D0052084F8510000206065C4F873
:101CE00038B0E587A58702992163E586A58620643B
:101CF000606420680168490603D4016841F040012E
:101D00000160E068B0F5006F606803D0F0B3012DAA
:101D100047D081E008B1012D3CD1206B21680088BB
:101D2000C860206B801C2063E08E401EE08631E09E
:101D30002068816889070FD5E18E69B1B9F1010F7B
:101D40000AD1216B0988C160206B801C2063E08E62
:101D5000401EE0864FF0000920688168C9070CD05A
:101D6000E18F51B1C068A16B0880A06B801CA0639B
:101D7000E08F401EE0874FF00109FFF7C3FBA0EBA7
:101D80000800B84206D3781C04D001E009E05BE00B
:101D900003265BE0E08E0028CAD1E08F0028C7D17F
:101DA00040E0206B216800780873206B401C2063A2
:101DB000E08E401EE0862FE02068816889070FD5FD
:101DC000E18E69B1B9F1010F0AD1216B0978017374
:101DD000206B401C2063E08E401EE0864FF000091F
:101DE00020688168C9070CD0E18F51B1C068A16B30
:101DF0000870A06B401CA063E08F401EE0874FF08E
:101E00000109FFF77FFBA0EB0800B84202D3781C62
:101E100002D0BAE7002FB8D0E08E0028CCD1E08FF6
:101E20000028C9D142463946204600F0D5F818B1FD
:101E30000126202060650BE0A06818B92068C16801
:101E400080680090606D08B1012601E084F851A01F
:101E5000002084F85000304627E710B5401EB0F14E
:101E6000807F01D3012010BD4FF0E02460610F217D
:101E7000601700F09AF90020A0610720206100207F
:101E800010BDFEE730B587B00C46054604AA012117
:101E9000FFF70CF89DF81010C80710D005AB01AA89
:101EA000012128460094FFF725F8082C07D1019856
:101EB0002346C0F30A0105AA002000F002F807B08B
:101EC00030BDF0B5074685B015460E461C4618468F
:101ED000FEF720FE0299C0B266F30A01029103994F
:101EE0002B4664F3030121F0700141F0800103915E
:101EF0000121CDE9000102AA02213846FFF7C4F80A
:101F000005B0F0BD30B587B014216846FEF723FA5E
:101F10001B480024016841F080010160016801F064
:101F200080010591016841F0010101600068154DD3
:101F300000F001000590224610212846FFF7DCFA48
:101F4000102000900120CDE9010469462846039441
:101F5000FFF7DAF94FF4004000904FF40410CDE998
:101F6000010469462846FFF7CFF9002211462820D0
:101F7000FFF736FB2820FFF725FB07B030BD000038
:101F80003038024000000240104810B50E49016090
:101F90004FF48271416000218160C1604FF4007292
:101FA0000161C0E905121022C0E907214162816286
:101FB0000A21C162FFF7C8FD002803D0BDE8104028
:101FC000FFF793B910BD0000003001401000002061
:101FD000FEE7FEE770470000F8B515460E460B46D3
:101FE000009204460122022100F02CF8A0B9134807
:101FF00013490068B0FBF1F04FF47A714843009048
:102000006068B0F5827F0DD13346002280212046E2
:10201000009500F017F870B1606D40F02000606529
:102020000320F8BD009830B1401E00902068806801
:10203000C0430006F6D50020F8BD00000C000020CB
:1020400000366E012DE9F8431E4691468846044647
:10205000089DFFF757FA401B351AFFF753FA07465A
:1020600025480068C0F3CB30684338E0701C37D097
:10207000FFF748FAC01BA84203D215B1009860B31D
:102080002CE02068416821F0E00141606068B0F513
:10209000827F0BD1A068B0F5004F02D0B0F5806F01
:1020A00004D12068016821F040010160A06AB0F508
:1020B000005F09D12068016821F4005101602068A7
:1020C000016841F400510160012084F851000020B2
:1020D00084F850000320BDE8F8830025401E0090DE
:1020E0002068816838EA010004D000214945BDD14B
:1020F0000020F0E70121F9E70C0000207047FFF70E
:1021000007BA000030B593B030216846FEF723F9D6
:1021100014210CA8FEF71FF91D480025016841F0A5
:1021200080510160006800F08050119019480168EA
:1021300041F4804101600068022400F48040119065
:102140000120039010200490009406940820CDE90B
:102150000750A820CDE9090404200B906846FFF73A
:102160003DFB08B172B6FEE70CA90F2081E83100F3
:102170004FF4A0500F904FF48050109005210CA800
:10218000FFF760FA002801D072B6FEE713B030BD49
:1021900040380240007000400248016841F470017C
:1021A0000160704788ED00E0FEE70907090E00288E
:1021B00004DB00F1E02080F80014704700F00F000D
:1021C00000F1E02080F8141D704730B585B00C4652
:1021D0000546FEF721FF2846FEF7B9FCFF212846F9
:1021E000FEF751FD02A8FEF775FC029802A920F443
:1021F000884040F0200002902846FEF73BFC6846ED
:10220000FEF732FF0098022120F4F85202F5E06256
:1022100022F4604020F03E0000906A462846FEF717
:1022200007FF01A8FEF710FE0198012120F03E02F1
:102230001E3222F4E07020F00100019001AA28462D
:10224000FEF7E6FD00200146039003AA2846FEF7AC
:10225000A4FC4FF08040049004AA00212846FEF719
:1022600095FC01231A4600212846FEF79DFC002319
:10227000022221462846FEF7D3F8002211462846BE
:10228000FEF79FFC012211462846FEF7E8FD0221D9
:102290002846FEF7B9FC00212846FEF7D5FC05B01C
:1022A00030BD00001CB5FFF73BF9FFF72BFFFFF730
:1022B00029FEFFF769FE0F210020FFF786FF08A126
:1022C000D1E90001CDE90001002108236A46084652
:1022D000FFF7F7FD08210020FFF7D4FDF4E7000029
:1022E00001020304050607084FF04070E1EE100AF2
:1022F0007047000000000000000001020304060710
:10230000080900002423000800000020100000003D
:10231000C4010008342300081000002090070000CA
:10232000E0010008010000001000000000000000B3
:042330000024F40091
:040000050800018965
:00000001FF
